{
  "_format": "hh-sol-artifact-1",
  "contractName": "ChannelFactory",
  "sourceName": "contracts/ChannelFactory.sol",
  "abi": [
    {
      "inputs": [],
      "stateMutability": "nonpayable",
      "type": "constructor"
    },
    {
      "anonymous": false,
      "inputs": [
        {
          "indexed": false,
          "internalType": "address",
          "name": "newAddress",
          "type": "address"
        }
      ],
      "name": "ChannelCreated",
      "type": "event"
    },
    {
      "inputs": [
        {
          "internalType": "uint256",
          "name": "",
          "type": "uint256"
        }
      ],
      "name": "allChannels",
      "outputs": [
        {
          "internalType": "contract Channel",
          "name": "",
          "type": "address"
        }
      ],
      "stateMutability": "view",
      "type": "function"
    },
    {
      "inputs": [
        {
          "internalType": "string",
          "name": "_title",
          "type": "string"
        },
        {
          "internalType": "string",
          "name": "_author",
          "type": "string"
        },
        {
          "internalType": "string",
          "name": "_description",
          "type": "string"
        },
        {
          "internalType": "string",
          "name": "_email",
          "type": "string"
        },
        {
          "internalType": "string",
          "name": "_arweaveImgID",
          "type": "string"
        },
        {
          "internalType": "string",
          "name": "_keywords",
          "type": "string"
        }
      ],
      "name": "createChannel",
      "outputs": [],
      "stateMutability": "nonpayable",
      "type": "function"
    },
    {
      "inputs": [],
      "name": "getAllChannels",
      "outputs": [
        {
          "internalType": "contract Channel[]",
          "name": "",
          "type": "address[]"
        }
      ],
      "stateMutability": "view",
      "type": "function"
    },
    {
      "inputs": [],
      "name": "owner",
      "outputs": [
        {
          "internalType": "address",
          "name": "",
          "type": "address"
        }
      ],
      "stateMutability": "view",
      "type": "function"
    }
  ],
  "bytecode": "0x608060405234801561001057600080fd5b50336000806101000a81548173ffffffffffffffffffffffffffffffffffffffff021916908373ffffffffffffffffffffffffffffffffffffffff160217905550614148806100606000396000f3fe60806040523480156200001157600080fd5b5060043610620000525760003560e01c80635dac328214620000575780638da5cb5b1462000079578063a5cb73bf146200009b578063eb73baf014620000d1575b600080fd5b62000061620000f1565b60405162000070919062000788565b60405180910390f35b6200008362000181565b604051620000929190620006c4565b60405180910390f35b620000b96004803603810190620000b39190620005a0565b620001a5565b604051620000c89190620007ac565b60405180910390f35b620000ef6004803603810190620000e9919062000474565b620001e5565b005b606060018054806020026020016040519081016040528092919081815260200182805480156200017757602002820191906000526020600020905b8160009054906101000a900473ffffffffffffffffffffffffffffffffffffffff1673ffffffffffffffffffffffffffffffffffffffff16815260200190600101908083116200012c575b5050505050905090565b60008054906101000a900473ffffffffffffffffffffffffffffffffffffffff1681565b60018181548110620001b657600080fd5b906000526020600020016000915054906101000a900473ffffffffffffffffffffffffffffffffffffffff1681565b600033878787878787604051620001fc90620003dd565b6200020e9796959493929190620006e1565b604051809103906000f0801580156200022b573d6000803e3d6000fd5b5090506001819080600181540180825580915050600190039060005260206000200160009091909190916101000a81548173ffffffffffffffffffffffffffffffffffffffff021916908373ffffffffffffffffffffffffffffffffffffffff160217905550620002d26040518060400160405280602081526020017f4368616e6e656c2043726561746564207769746820616464726573733a2025738152508262000314565b7fc625d37dd8b556110d70984e62f74ba35c77422c83c5f548fbd21b697a67ef5c81604051620003039190620006c4565b60405180910390a150505050505050565b620003b082826040516024016200032d929190620007c9565b6040516020818303038152906040527f319af333000000000000000000000000000000000000000000000000000000007bffffffffffffffffffffffffffffffffffffffffffffffffffffffff19166020820180517bffffffffffffffffffffffffffffffffffffffffffffffffffffffff8381831617835250505050620003b4565b5050565b60008151905060006a636f6e736f6c652e6c6f679050602083016000808483855afa5050505050565b61372680620009ed83390190565b600062000402620003fc8462000826565b620007fd565b9050828152602081018484840111156200041b57600080fd5b6200042884828562000917565b509392505050565b600082601f8301126200044257600080fd5b813562000454848260208601620003eb565b91505092915050565b6000813590506200046e81620009d2565b92915050565b60008060008060008060c087890312156200048e57600080fd5b600087013567ffffffffffffffff811115620004a957600080fd5b620004b789828a0162000430565b965050602087013567ffffffffffffffff811115620004d557600080fd5b620004e389828a0162000430565b955050604087013567ffffffffffffffff8111156200050157600080fd5b6200050f89828a0162000430565b945050606087013567ffffffffffffffff8111156200052d57600080fd5b6200053b89828a0162000430565b935050608087013567ffffffffffffffff8111156200055957600080fd5b6200056789828a0162000430565b92505060a087013567ffffffffffffffff8111156200058557600080fd5b6200059389828a0162000430565b9150509295509295509295565b600060208284031215620005b357600080fd5b6000620005c3848285016200045d565b91505092915050565b6000620005da838362000661565b60208301905092915050565b620005f181620008b1565b82525050565b600062000604826200086c565b6200061081856200088f565b93506200061d836200085c565b8060005b8381101562000654578151620006388882620005cc565b9750620006458362000882565b92505060018101905062000621565b5085935050505092915050565b6200066c81620008ef565b82525050565b6200067d81620008ef565b82525050565b6000620006908262000877565b6200069c8185620008a0565b9350620006ae81856020860162000926565b620006b981620009c1565b840191505092915050565b6000602082019050620006db6000830184620005e6565b92915050565b600060e082019050620006f8600083018a620005e6565b81810360208301526200070c818962000683565b9050818103604083015262000722818862000683565b9050818103606083015262000738818762000683565b905081810360808301526200074e818662000683565b905081810360a083015262000764818562000683565b905081810360c08301526200077a818462000683565b905098975050505050505050565b60006020820190508181036000830152620007a48184620005f7565b905092915050565b6000602082019050620007c3600083018462000672565b92915050565b60006040820190508181036000830152620007e5818562000683565b9050620007f66020830184620005e6565b9392505050565b6000620008096200081c565b90506200081782826200095c565b919050565b6000604051905090565b600067ffffffffffffffff82111562000844576200084362000992565b5b6200084f82620009c1565b9050602081019050919050565b6000819050602082019050919050565b600081519050919050565b600081519050919050565b6000602082019050919050565b600082825260208201905092915050565b600082825260208201905092915050565b6000620008be82620008c5565b9050919050565b600073ffffffffffffffffffffffffffffffffffffffff82169050919050565b6000819050919050565b6000620008fc8262000903565b9050919050565b60006200091082620008c5565b9050919050565b82818337600083830152505050565b60005b838110156200094657808201518184015260208101905062000929565b8381111562000956576000848401525b50505050565b6200096782620009c1565b810181811067ffffffffffffffff8211171562000989576200098862000992565b5b80604052505050565b7f4e487b7100000000000000000000000000000000000000000000000000000000600052604160045260246000fd5b6000601f19601f8301169050919050565b620009dd81620008e5565b8114620009e957600080fd5b5056fe60806040523480156200001157600080fd5b506040516200372638038062003726833981810160405281019062000037919062000450565b866000806101000a81548173ffffffffffffffffffffffffffffffffffffffff021916908373ffffffffffffffffffffffffffffffffffffffff16021790555033600160006101000a81548173ffffffffffffffffffffffffffffffffffffffff021916908373ffffffffffffffffffffffffffffffffffffffff160217905550620001046040518060400160405280601581526020017f4372656174696e67206368616e6e656c2062793a200000000000000000000000815250336200021260201b62000b5b1760201c565b6200010e620002e1565b868160000181905250858160200181905250848160400181905250838160600181905250828160800181905250818160a0018190525080600260008201518160000190805190602001906200016592919062000317565b5060208201518160010190805190602001906200018492919062000317565b506040820151816002019080519060200190620001a392919062000317565b506060820151816003019080519060200190620001c292919062000317565b506080820151816004019080519060200190620001e192919062000317565b5060a08201518160050190805190602001906200020092919062000317565b509050505050505050505050620007f3565b620002b482826040516024016200022b929190620005e5565b6040516020818303038152906040527f319af333000000000000000000000000000000000000000000000000000000007bffffffffffffffffffffffffffffffffffffffffffffffffffffffff19166020820180517bffffffffffffffffffffffffffffffffffffffffffffffffffffffff8381831617835250505050620002b860201b60201c565b5050565b60008151905060006a636f6e736f6c652e6c6f679050602083016000808483855afa5050505050565b6040518060c001604052806060815260200160608152602001606081526020016060815260200160608152602001606081525090565b8280546200032590620006fe565b90600052602060002090601f01602090048101928262000349576000855562000395565b82601f106200036457805160ff191683800117855562000395565b8280016001018555821562000395579182015b828111156200039457825182559160200191906001019062000377565b5b509050620003a49190620003a8565b5090565b5b80821115620003c3576000816000905550600101620003a9565b5090565b6000620003de620003d88462000642565b62000619565b905082815260208101848484011115620003f757600080fd5b62000404848285620006c8565b509392505050565b6000815190506200041d81620007d9565b92915050565b600082601f8301126200043557600080fd5b815162000447848260208601620003c7565b91505092915050565b600080600080600080600060e0888a0312156200046c57600080fd5b60006200047c8a828b016200040c565b975050602088015167ffffffffffffffff8111156200049a57600080fd5b620004a88a828b0162000423565b965050604088015167ffffffffffffffff811115620004c657600080fd5b620004d48a828b0162000423565b955050606088015167ffffffffffffffff811115620004f257600080fd5b620005008a828b0162000423565b945050608088015167ffffffffffffffff8111156200051e57600080fd5b6200052c8a828b0162000423565b93505060a088015167ffffffffffffffff8111156200054a57600080fd5b620005588a828b0162000423565b92505060c088015167ffffffffffffffff8111156200057657600080fd5b620005848a828b0162000423565b91505092959891949750929550565b6200059e8162000694565b82525050565b6000620005b18262000678565b620005bd818562000683565b9350620005cf818560208601620006c8565b620005da81620007c8565b840191505092915050565b60006040820190508181036000830152620006018185620005a4565b905062000612602083018462000593565b9392505050565b60006200062562000638565b905062000633828262000734565b919050565b6000604051905090565b600067ffffffffffffffff82111562000660576200065f62000799565b5b6200066b82620007c8565b9050602081019050919050565b600081519050919050565b600082825260208201905092915050565b6000620006a182620006a8565b9050919050565b600073ffffffffffffffffffffffffffffffffffffffff82169050919050565b60005b83811015620006e8578082015181840152602081019050620006cb565b83811115620006f8576000848401525b50505050565b600060028204905060018216806200071757607f821691505b602082108114156200072e576200072d6200076a565b5b50919050565b6200073f82620007c8565b810181811067ffffffffffffffff8211171562000761576200076062000799565b5b80604052505050565b7f4e487b7100000000000000000000000000000000000000000000000000000000600052602260045260246000fd5b7f4e487b7100000000000000000000000000000000000000000000000000000000600052604160045260246000fd5b6000601f19601f8301169050919050565b620007e48162000694565b8114620007f057600080fd5b50565b612f2380620008036000396000f3fe60806040523480156200001157600080fd5b5060043610620000885760003560e01c8063a97025e81162000063578063a97025e81462000107578063b9cbb68f1462000127578063c16f402c146200014e578063c45a015514620001705762000088565b806330d281e0146200008d57806386f328a914620000af5780638da5cb5b14620000e5575b600080fd5b6200009762000192565b604051620000a69190620012e2565b60405180910390f35b620000cd6004803603810190620000c7919062000e7c565b6200054a565b604051620000dc9190620011d8565b60405180910390f35b620000ef6200058a565b604051620000fe9190620010c0565b60405180910390f35b6200012560048036038101906200011f919062000cf1565b620005ae565b005b620001316200071b565b604051620001459695949392919062001229565b60405180910390f35b6200015862000aa5565b604051620001679190620011b4565b60405180910390f35b6200017a62000b35565b604051620001899190620010c0565b60405180910390f35b6200019c62000c24565b60026040518060c0016040529081600082018054620001bb9062001476565b80601f0160208091040260200160405190810160405280929190818152602001828054620001e99062001476565b80156200023a5780601f106200020e576101008083540402835291602001916200023a565b820191906000526020600020905b8154815290600101906020018083116200021c57829003601f168201915b50505050508152602001600182018054620002559062001476565b80601f0160208091040260200160405190810160405280929190818152602001828054620002839062001476565b8015620002d45780601f10620002a857610100808354040283529160200191620002d4565b820191906000526020600020905b815481529060010190602001808311620002b657829003601f168201915b50505050508152602001600282018054620002ef9062001476565b80601f01602080910402602001604051908101604052809291908181526020018280546200031d9062001476565b80156200036e5780601f1062000342576101008083540402835291602001916200036e565b820191906000526020600020905b8154815290600101906020018083116200035057829003601f168201915b50505050508152602001600382018054620003899062001476565b80601f0160208091040260200160405190810160405280929190818152602001828054620003b79062001476565b8015620004085780601f10620003dc5761010080835404028352916020019162000408565b820191906000526020600020905b815481529060010190602001808311620003ea57829003601f168201915b50505050508152602001600482018054620004239062001476565b80601f0160208091040260200160405190810160405280929190818152602001828054620004519062001476565b8015620004a25780601f106200047657610100808354040283529160200191620004a2565b820191906000526020600020905b8154815290600101906020018083116200048457829003601f168201915b50505050508152602001600582018054620004bd9062001476565b80601f0160208091040260200160405190810160405280929190818152602001828054620004eb9062001476565b80156200053c5780601f1062000510576101008083540402835291602001916200053c565b820191906000526020600020905b8154815290600101906020018083116200051e57829003601f168201915b505050505081525050905090565b600881815481106200055b57600080fd5b906000526020600020016000915054906101000a900473ffffffffffffffffffffffffffffffffffffffff1681565b60008054906101000a900473ffffffffffffffffffffffffffffffffffffffff1681565b60008054906101000a900473ffffffffffffffffffffffffffffffffffffffff1673ffffffffffffffffffffffffffffffffffffffff163373ffffffffffffffffffffffffffffffffffffffff16146200063f576040517f08c379a00000000000000000000000000000000000000000000000000000000081526004016200063690620012c0565b60405180910390fd5b60008060009054906101000a900473ffffffffffffffffffffffffffffffffffffffff168989898989898989604051620006799062000c5a565b6200068d99989796959493929190620010dd565b604051809103906000f080158015620006aa573d6000803e3d6000fd5b5090506008819080600181540180825580915050600190039060005260206000200160009091909190916101000a81548173ffffffffffffffffffffffffffffffffffffffff021916908373ffffffffffffffffffffffffffffffffffffffff160217905550505050505050505050565b60028060000180546200072e9062001476565b80601f01602080910402602001604051908101604052809291908181526020018280546200075c9062001476565b8015620007ad5780601f106200078157610100808354040283529160200191620007ad565b820191906000526020600020905b8154815290600101906020018083116200078f57829003601f168201915b505050505090806001018054620007c49062001476565b80601f0160208091040260200160405190810160405280929190818152602001828054620007f29062001476565b8015620008435780601f10620008175761010080835404028352916020019162000843565b820191906000526020600020905b8154815290600101906020018083116200082557829003601f168201915b5050505050908060020180546200085a9062001476565b80601f0160208091040260200160405190810160405280929190818152602001828054620008889062001476565b8015620008d95780601f10620008ad57610100808354040283529160200191620008d9565b820191906000526020600020905b815481529060010190602001808311620008bb57829003601f168201915b505050505090806003018054620008f09062001476565b80601f01602080910402602001604051908101604052809291908181526020018280546200091e9062001476565b80156200096f5780601f1062000943576101008083540402835291602001916200096f565b820191906000526020600020905b8154815290600101906020018083116200095157829003601f168201915b505050505090806004018054620009869062001476565b80601f0160208091040260200160405190810160405280929190818152602001828054620009b49062001476565b801562000a055780601f10620009d95761010080835404028352916020019162000a05565b820191906000526020600020905b815481529060010190602001808311620009e757829003601f168201915b50505050509080600501805462000a1c9062001476565b80601f016020809104026020016040519081016040528092919081815260200182805462000a4a9062001476565b801562000a9b5780601f1062000a6f5761010080835404028352916020019162000a9b565b820191906000526020600020905b81548152906001019060200180831162000a7d57829003601f168201915b5050505050905086565b6060600880548060200260200160405190810160405280929190818152602001828054801562000b2b57602002820191906000526020600020905b8160009054906101000a900473ffffffffffffffffffffffffffffffffffffffff1673ffffffffffffffffffffffffffffffffffffffff168152602001906001019080831162000ae0575b5050505050905090565b600160009054906101000a900473ffffffffffffffffffffffffffffffffffffffff1681565b62000bf7828260405160240162000b74929190620011f5565b6040516020818303038152906040527f319af333000000000000000000000000000000000000000000000000000000007bffffffffffffffffffffffffffffffffffffffffffffffffffffffff19166020820180517bffffffffffffffffffffffffffffffffffffffffffffffffffffffff838183161783525050505062000bfb565b5050565b60008151905060006a636f6e736f6c652e6c6f679050602083016000808483855afa5050505050565b6040518060c001604052806060815260200160608152602001606081526020016060815260200160608152602001606081525090565b61193380620015bb83390190565b600062000c7f62000c79846200132f565b62001306565b90508281526020810184848401111562000c9857600080fd5b62000ca584828562001431565b509392505050565b600082601f83011262000cbf57600080fd5b813562000cd184826020860162000c68565b91505092915050565b60008135905062000ceb81620015a0565b92915050565b600080600080600080600080610100898b03121562000d0f57600080fd5b600089013567ffffffffffffffff81111562000d2a57600080fd5b62000d388b828c0162000cad565b985050602089013567ffffffffffffffff81111562000d5657600080fd5b62000d648b828c0162000cad565b975050604089013567ffffffffffffffff81111562000d8257600080fd5b62000d908b828c0162000cad565b965050606089013567ffffffffffffffff81111562000dae57600080fd5b62000dbc8b828c0162000cad565b955050608089013567ffffffffffffffff81111562000dda57600080fd5b62000de88b828c0162000cad565b94505060a089013567ffffffffffffffff81111562000e0657600080fd5b62000e148b828c0162000cad565b93505060c089013567ffffffffffffffff81111562000e3257600080fd5b62000e408b828c0162000cad565b92505060e089013567ffffffffffffffff81111562000e5e57600080fd5b62000e6c8b828c0162000cad565b9150509295985092959890939650565b60006020828403121562000e8f57600080fd5b600062000e9f8482850162000cda565b91505092915050565b600062000eb6838362000f3d565b60208301905092915050565b62000ecd81620013cb565b82525050565b600062000ee08262001375565b62000eec818562001398565b935062000ef98362001365565b8060005b8381101562000f3057815162000f14888262000ea8565b975062000f21836200138b565b92505060018101905062000efd565b5085935050505092915050565b62000f488162001409565b82525050565b62000f598162001409565b82525050565b600062000f6c8262001380565b62000f788185620013a9565b935062000f8a81856020860162001440565b62000f958162001540565b840191505092915050565b600062000fad8262001380565b62000fb98185620013ba565b935062000fcb81856020860162001440565b62000fd68162001540565b840191505092915050565b600062000ff0602583620013ba565b915062000ffd8262001551565b604082019050919050565b600060c083016000830151848203600086015262001027828262000f5f565b9150506020830151848203602086015262001043828262000f5f565b915050604083015184820360408601526200105f828262000f5f565b915050606083015184820360608601526200107b828262000f5f565b9150506080830151848203608086015262001097828262000f5f565b91505060a083015184820360a0860152620010b3828262000f5f565b9150508091505092915050565b6000602082019050620010d7600083018462000ec2565b92915050565b600061012082019050620010f5600083018c62000ec2565b818103602083015262001109818b62000fa0565b905081810360408301526200111f818a62000fa0565b9050818103606083015262001135818962000fa0565b905081810360808301526200114b818862000fa0565b905081810360a083015262001161818762000fa0565b905081810360c083015262001177818662000fa0565b905081810360e08301526200118d818562000fa0565b9050818103610100830152620011a4818462000fa0565b90509a9950505050505050505050565b60006020820190508181036000830152620011d0818462000ed3565b905092915050565b6000602082019050620011ef600083018462000f4e565b92915050565b6000604082019050818103600083015262001211818562000fa0565b905062001222602083018462000ec2565b9392505050565b600060c082019050818103600083015262001245818962000fa0565b905081810360208301526200125b818862000fa0565b9050818103604083015262001271818762000fa0565b9050818103606083015262001287818662000fa0565b905081810360808301526200129d818562000fa0565b905081810360a0830152620012b3818462000fa0565b9050979650505050505050565b60006020820190508181036000830152620012db8162000fe1565b9050919050565b60006020820190508181036000830152620012fe818462001008565b905092915050565b60006200131262001325565b9050620013208282620014ac565b919050565b6000604051905090565b600067ffffffffffffffff8211156200134d576200134c62001511565b5b620013588262001540565b9050602081019050919050565b6000819050602082019050919050565b600081519050919050565b600081519050919050565b6000602082019050919050565b600082825260208201905092915050565b600082825260208201905092915050565b600082825260208201905092915050565b6000620013d882620013df565b9050919050565b600073ffffffffffffffffffffffffffffffffffffffff82169050919050565b6000819050919050565b600062001416826200141d565b9050919050565b60006200142a82620013df565b9050919050565b82818337600083830152505050565b60005b838110156200146057808201518184015260208101905062001443565b8381111562001470576000848401525b50505050565b600060028204905060018216806200148f57607f821691505b60208210811415620014a657620014a5620014e2565b5b50919050565b620014b78262001540565b810181811067ffffffffffffffff82111715620014d957620014d862001511565b5b80604052505050565b7f4e487b7100000000000000000000000000000000000000000000000000000000600052602260045260246000fd5b7f4e487b7100000000000000000000000000000000000000000000000000000000600052604160045260246000fd5b6000601f19601f8301169050919050565b7f596f7520617265206e6f7420746865206f776e6572206f66207468697320436860008201527f616e6e656c000000000000000000000000000000000000000000000000000000602082015250565b620015ab81620013ff565b8114620015b757600080fd5b5056fe60806040523480156200001157600080fd5b50604051620019333803806200193383398181016040528101906200003791906200058b565b33600160006101000a81548173ffffffffffffffffffffffffffffffffffffffff021916908373ffffffffffffffffffffffffffffffffffffffff160217905550886000806101000a81548173ffffffffffffffffffffffffffffffffffffffff021916908373ffffffffffffffffffffffffffffffffffffffff160217905550620000e96040518060600160405280602981526020016200190a602991398a336200029560201b6200099f1760201c565b620001356040518060400160405280600c81526020017f6d73672e73656e6465723a200000000000000000000000000000000000000000815250336200033e60201b62000a3e1760201c565b6200013f6200040d565b888160000181905250878160200181905250868160400181905250858160600181905250848160800181905250838160a00181905250828160c00181905250818160e001819052508060026000820151816000019080519060200190620001a892919062000452565b506020820151816001019080519060200190620001c792919062000452565b506040820151816002019080519060200190620001e692919062000452565b5060608201518160030190805190602001906200020592919062000452565b5060808201518160040190805190602001906200022492919062000452565b5060a08201518160050190805190602001906200024392919062000452565b5060c08201518160060190805190602001906200026292919062000452565b5060e08201518160070190805190602001906200028192919062000452565b5090505050505050505050505050620009d0565b62000339838383604051602401620002b093929190620007b2565b6040516020818303038152906040527ffcec75e0000000000000000000000000000000000000000000000000000000007bffffffffffffffffffffffffffffffffffffffffffffffffffffffff19166020820180517bffffffffffffffffffffffffffffffffffffffffffffffffffffffff8381831617835250505050620003e460201b60201c565b505050565b620003e08282604051602401620003579291906200077e565b6040516020818303038152906040527f319af333000000000000000000000000000000000000000000000000000000007bffffffffffffffffffffffffffffffffffffffffffffffffffffffff19166020820180517bffffffffffffffffffffffffffffffffffffffffffffffffffffffff8381831617835250505050620003e460201b60201c565b5050565b60008151905060006a636f6e736f6c652e6c6f679050602083016000808483855afa5050505050565b60405180610100016040528060608152602001606081526020016060815260200160608152602001606081526020016060815260200160608152602001606081525090565b8280546200046090620008db565b90600052602060002090601f016020900481019282620004845760008555620004d0565b82601f106200049f57805160ff1916838001178555620004d0565b82800160010185558215620004d0579182015b82811115620004cf578251825591602001919060010190620004b2565b5b509050620004df9190620004e3565b5090565b5b80821115620004fe576000816000905550600101620004e4565b5090565b60006200051962000513846200081f565b620007f6565b9050828152602081018484840111156200053257600080fd5b6200053f848285620008a5565b509392505050565b6000815190506200055881620009b6565b92915050565b600082601f8301126200057057600080fd5b81516200058284826020860162000502565b91505092915050565b60008060008060008060008060006101208a8c031215620005ab57600080fd5b6000620005bb8c828d0162000547565b99505060208a015167ffffffffffffffff811115620005d957600080fd5b620005e78c828d016200055e565b98505060408a015167ffffffffffffffff8111156200060557600080fd5b620006138c828d016200055e565b97505060608a015167ffffffffffffffff8111156200063157600080fd5b6200063f8c828d016200055e565b96505060808a015167ffffffffffffffff8111156200065d57600080fd5b6200066b8c828d016200055e565b95505060a08a015167ffffffffffffffff8111156200068957600080fd5b620006978c828d016200055e565b94505060c08a015167ffffffffffffffff811115620006b557600080fd5b620006c38c828d016200055e565b93505060e08a015167ffffffffffffffff811115620006e157600080fd5b620006ef8c828d016200055e565b9250506101008a015167ffffffffffffffff8111156200070e57600080fd5b6200071c8c828d016200055e565b9150509295985092959850929598565b620007378162000871565b82525050565b60006200074a8262000855565b62000756818562000860565b935062000768818560208601620008a5565b6200077381620009a5565b840191505092915050565b600060408201905081810360008301526200079a81856200073d565b9050620007ab60208301846200072c565b9392505050565b60006060820190508181036000830152620007ce81866200073d565b9050620007df60208301856200072c565b620007ee60408301846200072c565b949350505050565b60006200080262000815565b905062000810828262000911565b919050565b6000604051905090565b600067ffffffffffffffff8211156200083d576200083c62000976565b5b6200084882620009a5565b9050602081019050919050565b600081519050919050565b600082825260208201905092915050565b60006200087e8262000885565b9050919050565b600073ffffffffffffffffffffffffffffffffffffffff82169050919050565b60005b83811015620008c5578082015181840152602081019050620008a8565b83811115620008d5576000848401525b50505050565b60006002820490506001821680620008f457607f821691505b602082108114156200090b576200090a62000947565b5b50919050565b6200091c82620009a5565b810181811067ffffffffffffffff821117156200093e576200093d62000976565b5b80604052505050565b7f4e487b7100000000000000000000000000000000000000000000000000000000600052602260045260246000fd5b7f4e487b7100000000000000000000000000000000000000000000000000000000600052604160045260246000fd5b6000601f19601f8301169050919050565b620009c18162000871565b8114620009cd57600080fd5b50565b610f2a80620009e06000396000f3fe608060405234801561001057600080fd5b50600436106100365760003560e01c80634b72117f1461003b57806397f041c214610060575b600080fd5b61004361007e565b604051610057989796959493929190610d18565b60405180910390f35b6100686104f4565b6040516100759190610dce565b60405180910390f35b600280600001805461008f90610e82565b80601f01602080910402602001604051908101604052809291908181526020018280546100bb90610e82565b80156101085780601f106100dd57610100808354040283529160200191610108565b820191906000526020600020905b8154815290600101906020018083116100eb57829003601f168201915b50505050509080600101805461011d90610e82565b80601f016020809104026020016040519081016040528092919081815260200182805461014990610e82565b80156101965780601f1061016b57610100808354040283529160200191610196565b820191906000526020600020905b81548152906001019060200180831161017957829003601f168201915b5050505050908060020180546101ab90610e82565b80601f01602080910402602001604051908101604052809291908181526020018280546101d790610e82565b80156102245780601f106101f957610100808354040283529160200191610224565b820191906000526020600020905b81548152906001019060200180831161020757829003601f168201915b50505050509080600301805461023990610e82565b80601f016020809104026020016040519081016040528092919081815260200182805461026590610e82565b80156102b25780601f10610287576101008083540402835291602001916102b2565b820191906000526020600020905b81548152906001019060200180831161029557829003601f168201915b5050505050908060040180546102c790610e82565b80601f01602080910402602001604051908101604052809291908181526020018280546102f390610e82565b80156103405780601f1061031557610100808354040283529160200191610340565b820191906000526020600020905b81548152906001019060200180831161032357829003601f168201915b50505050509080600501805461035590610e82565b80601f016020809104026020016040519081016040528092919081815260200182805461038190610e82565b80156103ce5780601f106103a3576101008083540402835291602001916103ce565b820191906000526020600020905b8154815290600101906020018083116103b157829003601f168201915b5050505050908060060180546103e390610e82565b80601f016020809104026020016040519081016040528092919081815260200182805461040f90610e82565b801561045c5780601f106104315761010080835404028352916020019161045c565b820191906000526020600020905b81548152906001019060200180831161043f57829003601f168201915b50505050509080600701805461047190610e82565b80601f016020809104026020016040519081016040528092919081815260200182805461049d90610e82565b80156104ea5780601f106104bf576101008083540402835291602001916104ea565b820191906000526020600020905b8154815290600101906020018083116104cd57829003601f168201915b5050505050905088565b6104fc610b03565b60026040518061010001604052908160008201805461051a90610e82565b80601f016020809104026020016040519081016040528092919081815260200182805461054690610e82565b80156105935780601f1061056857610100808354040283529160200191610593565b820191906000526020600020905b81548152906001019060200180831161057657829003601f168201915b505050505081526020016001820180546105ac90610e82565b80601f01602080910402602001604051908101604052809291908181526020018280546105d890610e82565b80156106255780601f106105fa57610100808354040283529160200191610625565b820191906000526020600020905b81548152906001019060200180831161060857829003601f168201915b5050505050815260200160028201805461063e90610e82565b80601f016020809104026020016040519081016040528092919081815260200182805461066a90610e82565b80156106b75780601f1061068c576101008083540402835291602001916106b7565b820191906000526020600020905b81548152906001019060200180831161069a57829003601f168201915b505050505081526020016003820180546106d090610e82565b80601f01602080910402602001604051908101604052809291908181526020018280546106fc90610e82565b80156107495780601f1061071e57610100808354040283529160200191610749565b820191906000526020600020905b81548152906001019060200180831161072c57829003601f168201915b5050505050815260200160048201805461076290610e82565b80601f016020809104026020016040519081016040528092919081815260200182805461078e90610e82565b80156107db5780601f106107b0576101008083540402835291602001916107db565b820191906000526020600020905b8154815290600101906020018083116107be57829003601f168201915b505050505081526020016005820180546107f490610e82565b80601f016020809104026020016040519081016040528092919081815260200182805461082090610e82565b801561086d5780601f106108425761010080835404028352916020019161086d565b820191906000526020600020905b81548152906001019060200180831161085057829003601f168201915b5050505050815260200160068201805461088690610e82565b80601f01602080910402602001604051908101604052809291908181526020018280546108b290610e82565b80156108ff5780601f106108d4576101008083540402835291602001916108ff565b820191906000526020600020905b8154815290600101906020018083116108e257829003601f168201915b5050505050815260200160078201805461091890610e82565b80601f016020809104026020016040519081016040528092919081815260200182805461094490610e82565b80156109915780601f1061096657610100808354040283529160200191610991565b820191906000526020600020905b81548152906001019060200180831161097457829003601f168201915b505050505081525050905090565b610a398383836040516024016109b793929190610cda565b6040516020818303038152906040527ffcec75e0000000000000000000000000000000000000000000000000000000007bffffffffffffffffffffffffffffffffffffffffffffffffffffffff19166020820180517bffffffffffffffffffffffffffffffffffffffffffffffffffffffff8381831617835250505050610ada565b505050565b610ad68282604051602401610a54929190610caa565b6040516020818303038152906040527f319af333000000000000000000000000000000000000000000000000000000007bffffffffffffffffffffffffffffffffffffffffffffffffffffffff19166020820180517bffffffffffffffffffffffffffffffffffffffffffffffffffffffff8381831617835250505050610ada565b5050565b60008151905060006a636f6e736f6c652e6c6f679050602083016000808483855afa5050505050565b60405180610100016040528060608152602001606081526020016060815260200160608152602001606081526020016060815260200160608152602001606081525090565b610b5181610e1d565b82525050565b6000610b6282610df0565b610b6c8185610dfb565b9350610b7c818560208601610e4f565b610b8581610ee3565b840191505092915050565b6000610b9b82610df0565b610ba58185610e0c565b9350610bb5818560208601610e4f565b610bbe81610ee3565b840191505092915050565b6000610100830160008301518482036000860152610be78282610b57565b91505060208301518482036020860152610c018282610b57565b91505060408301518482036040860152610c1b8282610b57565b91505060608301518482036060860152610c358282610b57565b91505060808301518482036080860152610c4f8282610b57565b91505060a083015184820360a0860152610c698282610b57565b91505060c083015184820360c0860152610c838282610b57565b91505060e083015184820360e0860152610c9d8282610b57565b9150508091505092915050565b60006040820190508181036000830152610cc48185610b90565b9050610cd36020830184610b48565b9392505050565b60006060820190508181036000830152610cf48186610b90565b9050610d036020830185610b48565b610d106040830184610b48565b949350505050565b6000610100820190508181036000830152610d33818b610b90565b90508181036020830152610d47818a610b90565b90508181036040830152610d5b8189610b90565b90508181036060830152610d6f8188610b90565b90508181036080830152610d838187610b90565b905081810360a0830152610d978186610b90565b905081810360c0830152610dab8185610b90565b905081810360e0830152610dbf8184610b90565b90509998505050505050505050565b60006020820190508181036000830152610de88184610bc9565b905092915050565b600081519050919050565b600082825260208201905092915050565b600082825260208201905092915050565b6000610e2882610e2f565b9050919050565b600073ffffffffffffffffffffffffffffffffffffffff82169050919050565b60005b83811015610e6d578082015181840152602081019050610e52565b83811115610e7c576000848401525b50505050565b60006002820490506001821680610e9a57607f821691505b60208210811415610eae57610ead610eb4565b5b50919050565b7f4e487b7100000000000000000000000000000000000000000000000000000000600052602260045260246000fd5b6000601f19601f830116905091905056fea2646970667358221220e81b149ccad384728ab95ac1e8c46c6f9d164adeeb14153b6c91f266f982674064736f6c634300080400334372656174696e6720657069736f64652062793a2025732066726f6d206368616e6e656c3a20252573a264697066735822122068b17ba2146c34da095df25e294b4aa4eed910172e150cdfa4c362cad62e09b664736f6c63430008040033a26469706673582212208946c53fc5aa8915d6ab6d74d09c3274b58d5178f07124468e427b2a20e2288e64736f6c63430008040033",
  "linkReferences": {},
  "deployedLinkReferences": {}
}