{
  "_format": "hh-sol-artifact-1",
  "contractName": "Episode",
  "sourceName": "contracts/Episode.sol",
  "abi": [
    {
      "inputs": [
        {
          "internalType": "address",
          "name": "_owner",
          "type": "address"
        },
        {
          "internalType": "string",
          "name": "_title",
          "type": "string"
        },
        {
          "internalType": "string",
          "name": "_audArweaveID",
          "type": "string"
        },
        {
          "internalType": "string",
          "name": "_description",
          "type": "string"
        },
        {
          "internalType": "string",
          "name": "_duration",
          "type": "string"
        },
        {
          "internalType": "string",
          "name": "_rating",
          "type": "string"
        },
        {
          "internalType": "string",
          "name": "_coverArweaveID",
          "type": "string"
        },
        {
          "internalType": "string",
          "name": "_keywords",
          "type": "string"
        },
        {
          "internalType": "string",
          "name": "_itunesRating",
          "type": "string"
        }
      ],
      "stateMutability": "nonpayable",
      "type": "constructor"
    },
    {
      "inputs": [],
      "name": "episodeInfo",
      "outputs": [
        {
          "internalType": "string",
          "name": "title",
          "type": "string"
        },
        {
          "internalType": "string",
          "name": "audArweaveID",
          "type": "string"
        },
        {
          "internalType": "string",
          "name": "description",
          "type": "string"
        },
        {
          "internalType": "string",
          "name": "duration",
          "type": "string"
        },
        {
          "internalType": "string",
          "name": "rating",
          "type": "string"
        },
        {
          "internalType": "string",
          "name": "coverArweaveID",
          "type": "string"
        },
        {
          "internalType": "string",
          "name": "keywords",
          "type": "string"
        },
        {
          "internalType": "string",
          "name": "itunesRating",
          "type": "string"
        }
      ],
      "stateMutability": "view",
      "type": "function"
    },
    {
      "inputs": [],
      "name": "getEpisodeInfo",
      "outputs": [
        {
          "components": [
            {
              "internalType": "string",
              "name": "title",
              "type": "string"
            },
            {
              "internalType": "string",
              "name": "audArweaveID",
              "type": "string"
            },
            {
              "internalType": "string",
              "name": "description",
              "type": "string"
            },
            {
              "internalType": "string",
              "name": "duration",
              "type": "string"
            },
            {
              "internalType": "string",
              "name": "rating",
              "type": "string"
            },
            {
              "internalType": "string",
              "name": "coverArweaveID",
              "type": "string"
            },
            {
              "internalType": "string",
              "name": "keywords",
              "type": "string"
            },
            {
              "internalType": "string",
              "name": "itunesRating",
              "type": "string"
            }
          ],
          "internalType": "struct Episode.EpisodeInfo",
          "name": "",
          "type": "tuple"
        }
      ],
      "stateMutability": "view",
      "type": "function"
    }
  ],
  "bytecode": "0x60806040523480156200001157600080fd5b50604051620019333803806200193383398181016040528101906200003791906200058b565b33600160006101000a81548173ffffffffffffffffffffffffffffffffffffffff021916908373ffffffffffffffffffffffffffffffffffffffff160217905550886000806101000a81548173ffffffffffffffffffffffffffffffffffffffff021916908373ffffffffffffffffffffffffffffffffffffffff160217905550620000e96040518060600160405280602981526020016200190a602991398a336200029560201b6200099f1760201c565b620001356040518060400160405280600c81526020017f6d73672e73656e6465723a200000000000000000000000000000000000000000815250336200033e60201b62000a3e1760201c565b6200013f6200040d565b888160000181905250878160200181905250868160400181905250858160600181905250848160800181905250838160a00181905250828160c00181905250818160e001819052508060026000820151816000019080519060200190620001a892919062000452565b506020820151816001019080519060200190620001c792919062000452565b506040820151816002019080519060200190620001e692919062000452565b5060608201518160030190805190602001906200020592919062000452565b5060808201518160040190805190602001906200022492919062000452565b5060a08201518160050190805190602001906200024392919062000452565b5060c08201518160060190805190602001906200026292919062000452565b5060e08201518160070190805190602001906200028192919062000452565b5090505050505050505050505050620009d0565b62000339838383604051602401620002b093929190620007b2565b6040516020818303038152906040527ffcec75e0000000000000000000000000000000000000000000000000000000007bffffffffffffffffffffffffffffffffffffffffffffffffffffffff19166020820180517bffffffffffffffffffffffffffffffffffffffffffffffffffffffff8381831617835250505050620003e460201b60201c565b505050565b620003e08282604051602401620003579291906200077e565b6040516020818303038152906040527f319af333000000000000000000000000000000000000000000000000000000007bffffffffffffffffffffffffffffffffffffffffffffffffffffffff19166020820180517bffffffffffffffffffffffffffffffffffffffffffffffffffffffff8381831617835250505050620003e460201b60201c565b5050565b60008151905060006a636f6e736f6c652e6c6f679050602083016000808483855afa5050505050565b60405180610100016040528060608152602001606081526020016060815260200160608152602001606081526020016060815260200160608152602001606081525090565b8280546200046090620008db565b90600052602060002090601f016020900481019282620004845760008555620004d0565b82601f106200049f57805160ff1916838001178555620004d0565b82800160010185558215620004d0579182015b82811115620004cf578251825591602001919060010190620004b2565b5b509050620004df9190620004e3565b5090565b5b80821115620004fe576000816000905550600101620004e4565b5090565b60006200051962000513846200081f565b620007f6565b9050828152602081018484840111156200053257600080fd5b6200053f848285620008a5565b509392505050565b6000815190506200055881620009b6565b92915050565b600082601f8301126200057057600080fd5b81516200058284826020860162000502565b91505092915050565b60008060008060008060008060006101208a8c031215620005ab57600080fd5b6000620005bb8c828d0162000547565b99505060208a015167ffffffffffffffff811115620005d957600080fd5b620005e78c828d016200055e565b98505060408a015167ffffffffffffffff8111156200060557600080fd5b620006138c828d016200055e565b97505060608a015167ffffffffffffffff8111156200063157600080fd5b6200063f8c828d016200055e565b96505060808a015167ffffffffffffffff8111156200065d57600080fd5b6200066b8c828d016200055e565b95505060a08a015167ffffffffffffffff8111156200068957600080fd5b620006978c828d016200055e565b94505060c08a015167ffffffffffffffff811115620006b557600080fd5b620006c38c828d016200055e565b93505060e08a015167ffffffffffffffff811115620006e157600080fd5b620006ef8c828d016200055e565b9250506101008a015167ffffffffffffffff8111156200070e57600080fd5b6200071c8c828d016200055e565b9150509295985092959850929598565b620007378162000871565b82525050565b60006200074a8262000855565b62000756818562000860565b935062000768818560208601620008a5565b6200077381620009a5565b840191505092915050565b600060408201905081810360008301526200079a81856200073d565b9050620007ab60208301846200072c565b9392505050565b60006060820190508181036000830152620007ce81866200073d565b9050620007df60208301856200072c565b620007ee60408301846200072c565b949350505050565b60006200080262000815565b905062000810828262000911565b919050565b6000604051905090565b600067ffffffffffffffff8211156200083d576200083c62000976565b5b6200084882620009a5565b9050602081019050919050565b600081519050919050565b600082825260208201905092915050565b60006200087e8262000885565b9050919050565b600073ffffffffffffffffffffffffffffffffffffffff82169050919050565b60005b83811015620008c5578082015181840152602081019050620008a8565b83811115620008d5576000848401525b50505050565b60006002820490506001821680620008f457607f821691505b602082108114156200090b576200090a62000947565b5b50919050565b6200091c82620009a5565b810181811067ffffffffffffffff821117156200093e576200093d62000976565b5b80604052505050565b7f4e487b7100000000000000000000000000000000000000000000000000000000600052602260045260246000fd5b7f4e487b7100000000000000000000000000000000000000000000000000000000600052604160045260246000fd5b6000601f19601f8301169050919050565b620009c18162000871565b8114620009cd57600080fd5b50565b610f2a80620009e06000396000f3fe608060405234801561001057600080fd5b50600436106100365760003560e01c80634b72117f1461003b57806397f041c214610060575b600080fd5b61004361007e565b604051610057989796959493929190610d18565b60405180910390f35b6100686104f4565b6040516100759190610dce565b60405180910390f35b600280600001805461008f90610e82565b80601f01602080910402602001604051908101604052809291908181526020018280546100bb90610e82565b80156101085780601f106100dd57610100808354040283529160200191610108565b820191906000526020600020905b8154815290600101906020018083116100eb57829003601f168201915b50505050509080600101805461011d90610e82565b80601f016020809104026020016040519081016040528092919081815260200182805461014990610e82565b80156101965780601f1061016b57610100808354040283529160200191610196565b820191906000526020600020905b81548152906001019060200180831161017957829003601f168201915b5050505050908060020180546101ab90610e82565b80601f01602080910402602001604051908101604052809291908181526020018280546101d790610e82565b80156102245780601f106101f957610100808354040283529160200191610224565b820191906000526020600020905b81548152906001019060200180831161020757829003601f168201915b50505050509080600301805461023990610e82565b80601f016020809104026020016040519081016040528092919081815260200182805461026590610e82565b80156102b25780601f10610287576101008083540402835291602001916102b2565b820191906000526020600020905b81548152906001019060200180831161029557829003601f168201915b5050505050908060040180546102c790610e82565b80601f01602080910402602001604051908101604052809291908181526020018280546102f390610e82565b80156103405780601f1061031557610100808354040283529160200191610340565b820191906000526020600020905b81548152906001019060200180831161032357829003601f168201915b50505050509080600501805461035590610e82565b80601f016020809104026020016040519081016040528092919081815260200182805461038190610e82565b80156103ce5780601f106103a3576101008083540402835291602001916103ce565b820191906000526020600020905b8154815290600101906020018083116103b157829003601f168201915b5050505050908060060180546103e390610e82565b80601f016020809104026020016040519081016040528092919081815260200182805461040f90610e82565b801561045c5780601f106104315761010080835404028352916020019161045c565b820191906000526020600020905b81548152906001019060200180831161043f57829003601f168201915b50505050509080600701805461047190610e82565b80601f016020809104026020016040519081016040528092919081815260200182805461049d90610e82565b80156104ea5780601f106104bf576101008083540402835291602001916104ea565b820191906000526020600020905b8154815290600101906020018083116104cd57829003601f168201915b5050505050905088565b6104fc610b03565b60026040518061010001604052908160008201805461051a90610e82565b80601f016020809104026020016040519081016040528092919081815260200182805461054690610e82565b80156105935780601f1061056857610100808354040283529160200191610593565b820191906000526020600020905b81548152906001019060200180831161057657829003601f168201915b505050505081526020016001820180546105ac90610e82565b80601f01602080910402602001604051908101604052809291908181526020018280546105d890610e82565b80156106255780601f106105fa57610100808354040283529160200191610625565b820191906000526020600020905b81548152906001019060200180831161060857829003601f168201915b5050505050815260200160028201805461063e90610e82565b80601f016020809104026020016040519081016040528092919081815260200182805461066a90610e82565b80156106b75780601f1061068c576101008083540402835291602001916106b7565b820191906000526020600020905b81548152906001019060200180831161069a57829003601f168201915b505050505081526020016003820180546106d090610e82565b80601f01602080910402602001604051908101604052809291908181526020018280546106fc90610e82565b80156107495780601f1061071e57610100808354040283529160200191610749565b820191906000526020600020905b81548152906001019060200180831161072c57829003601f168201915b5050505050815260200160048201805461076290610e82565b80601f016020809104026020016040519081016040528092919081815260200182805461078e90610e82565b80156107db5780601f106107b0576101008083540402835291602001916107db565b820191906000526020600020905b8154815290600101906020018083116107be57829003601f168201915b505050505081526020016005820180546107f490610e82565b80601f016020809104026020016040519081016040528092919081815260200182805461082090610e82565b801561086d5780601f106108425761010080835404028352916020019161086d565b820191906000526020600020905b81548152906001019060200180831161085057829003601f168201915b5050505050815260200160068201805461088690610e82565b80601f01602080910402602001604051908101604052809291908181526020018280546108b290610e82565b80156108ff5780601f106108d4576101008083540402835291602001916108ff565b820191906000526020600020905b8154815290600101906020018083116108e257829003601f168201915b5050505050815260200160078201805461091890610e82565b80601f016020809104026020016040519081016040528092919081815260200182805461094490610e82565b80156109915780601f1061096657610100808354040283529160200191610991565b820191906000526020600020905b81548152906001019060200180831161097457829003601f168201915b505050505081525050905090565b610a398383836040516024016109b793929190610cda565b6040516020818303038152906040527ffcec75e0000000000000000000000000000000000000000000000000000000007bffffffffffffffffffffffffffffffffffffffffffffffffffffffff19166020820180517bffffffffffffffffffffffffffffffffffffffffffffffffffffffff8381831617835250505050610ada565b505050565b610ad68282604051602401610a54929190610caa565b6040516020818303038152906040527f319af333000000000000000000000000000000000000000000000000000000007bffffffffffffffffffffffffffffffffffffffffffffffffffffffff19166020820180517bffffffffffffffffffffffffffffffffffffffffffffffffffffffff8381831617835250505050610ada565b5050565b60008151905060006a636f6e736f6c652e6c6f679050602083016000808483855afa5050505050565b60405180610100016040528060608152602001606081526020016060815260200160608152602001606081526020016060815260200160608152602001606081525090565b610b5181610e1d565b82525050565b6000610b6282610df0565b610b6c8185610dfb565b9350610b7c818560208601610e4f565b610b8581610ee3565b840191505092915050565b6000610b9b82610df0565b610ba58185610e0c565b9350610bb5818560208601610e4f565b610bbe81610ee3565b840191505092915050565b6000610100830160008301518482036000860152610be78282610b57565b91505060208301518482036020860152610c018282610b57565b91505060408301518482036040860152610c1b8282610b57565b91505060608301518482036060860152610c358282610b57565b91505060808301518482036080860152610c4f8282610b57565b91505060a083015184820360a0860152610c698282610b57565b91505060c083015184820360c0860152610c838282610b57565b91505060e083015184820360e0860152610c9d8282610b57565b9150508091505092915050565b60006040820190508181036000830152610cc48185610b90565b9050610cd36020830184610b48565b9392505050565b60006060820190508181036000830152610cf48186610b90565b9050610d036020830185610b48565b610d106040830184610b48565b949350505050565b6000610100820190508181036000830152610d33818b610b90565b90508181036020830152610d47818a610b90565b90508181036040830152610d5b8189610b90565b90508181036060830152610d6f8188610b90565b90508181036080830152610d838187610b90565b905081810360a0830152610d978186610b90565b905081810360c0830152610dab8185610b90565b905081810360e0830152610dbf8184610b90565b90509998505050505050505050565b60006020820190508181036000830152610de88184610bc9565b905092915050565b600081519050919050565b600082825260208201905092915050565b600082825260208201905092915050565b6000610e2882610e2f565b9050919050565b600073ffffffffffffffffffffffffffffffffffffffff82169050919050565b60005b83811015610e6d578082015181840152602081019050610e52565b83811115610e7c576000848401525b50505050565b60006002820490506001821680610e9a57607f821691505b60208210811415610eae57610ead610eb4565b5b50919050565b7f4e487b7100000000000000000000000000000000000000000000000000000000600052602260045260246000fd5b6000601f19601f830116905091905056fea2646970667358221220e81b149ccad384728ab95ac1e8c46c6f9d164adeeb14153b6c91f266f982674064736f6c634300080400334372656174696e6720657069736f64652062793a2025732066726f6d206368616e6e656c3a20252573",
  "linkReferences": {},
  "deployedLinkReferences": {}
}